{
    "contractName": "acceptEther",
    "abi": [
        {
            "inputs": [
                {
                    "internalType": "address",
                    "name": "",
                    "type": "address"
                }
            ],
            "name": "balances",
            "outputs": [
                {
                    "internalType": "uint256",
                    "name": "",
                    "type": "uint256"
                }
            ],
            "stateMutability": "view",
            "type": "function"
        },
        {
            "inputs": [],
            "name": "buytoken",
            "outputs": [],
            "stateMutability": "payable",
            "type": "function"
        }
    ],
    "bytecode": "608060405234801561001057600080fd5b50610160806100206000396000f3fe6080604052600436106100295760003560e01c806327e235e31461002e578063aad519c11461006d575b600080fd5b34801561003a57600080fd5b5061005b6100493660046100d8565b60006020819052908152604090205481565b60405190815260200160405180910390f35b610075610077565b005b336000908152602081905260408120805460019290610097908490610106565b90915550506001546040516001600160a01b03909116903480156108fc02916000818181858888f193505050501580156100d5573d6000803e3d6000fd5b50565b6000602082840312156100e9578081fd5b81356001600160a01b03811681146100ff578182fd5b9392505050565b6000821982111561012557634e487b7160e01b81526011600452602481fd5b50019056fea26469706673582212201fbd2b6d980156f660af81fe0d5e589e80df0d4199ad56c9a713a82805a8ecf864736f6c63430008040033",
    "sourcePath": "c:/Users/swapt/Desktop/Solidity_learn/Learning/acceptsEther.sol",
    "compiler": {
        "name": "solc",
        "version": "0.8.4+commit.c7e474f2"
    },
    "functionHashes": {
        "balances(address)": "27e235e3",
        "buytoken()": "aad519c1"
    },
    "gasEstimates": {
        "creation": {
            "codeDepositCost": "70400",
            "executionCost": "117",
            "totalCost": "70517"
        },
        "external": {
            "balances(address)": "1153",
            "buytoken()": "infinite"
        }
    }
}