{
    "contractName": "learningInteger",
    "abi": [
        {
            "inputs": [
                {
                    "internalType": "uint256",
                    "name": "incomingValue",
                    "type": "uint256"
                }
            ],
            "name": "onlyUint",
            "outputs": [],
            "stateMutability": "nonpayable",
            "type": "function"
        }
    ],
    "bytecode": "608060405260008054600a60ff199091161762ffff00191662fef50017905534801561002a57600080fd5b5060d1806100396000396000f3fe6080604052348015600f57600080fd5b506004361060285760003560e01c806377948d2c14602d575b600080fd5b603c60383660046053565b603e565b005b601360166000604c8284606a565b5050505050565b6000602082840312156063578081fd5b5035919050565b600061ffff808316818516808303821115609257634e487b7160e01b84526011600452602484fd5b0194935050505056fea2646970667358221220d9cfd1faca7b09ab56a7b7bc936f4a9376781adda51f833d330411b59e51aec964736f6c63430008020033",
    "sourcePath": "c:/Users/swapt/Desktop/Programming/Integers.sol",
    "compiler": {
        "name": "solc",
        "version": "0.8.2+commit.661d1103"
    },
    "functionHashes": {
        "onlyUint(uint256)": "77948d2c"
    },
    "gasEstimates": {
        "creation": {
            "codeDepositCost": "41800",
            "executionCost": "20938",
            "totalCost": "62738"
        },
        "external": {
            "onlyUint(uint256)": "321"
        }
    }
}