{
    "contractName": "learnBoolean",
    "abi": [
        {
            "inputs": [],
            "name": "manageBool",
            "outputs": [
                {
                    "internalType": "bool",
                    "name": "",
                    "type": "bool"
                }
            ],
            "stateMutability": "nonpayable",
            "type": "function"
        }
    ],
    "bytecode": "60806040526000805460ff19166001179055348015601c57600080fd5b50607f8061002b6000396000f3fe6080604052348015600f57600080fd5b506004361060285760003560e01c80639257618a14602d575b600080fd5b6000805460ff1916815560408051918252519081900360200190f3fea26469706673582212200440c692589f52b0a4a0126de262adb76743d5ee4c8fdfcd343198eb8ce21ca064736f6c63430008020033",
    "sourcePath": "c:/Users/swapt/Desktop/Programming/Boolean.sol",
    "compiler": {
        "name": "solc",
        "version": "0.8.2+commit.661d1103"
    },
    "functionHashes": {
        "manageBool()": "9257618a"
    },
    "gasEstimates": {
        "creation": {
            "codeDepositCost": "25400",
            "executionCost": "20899",
            "totalCost": "46299"
        },
        "external": {
            "manageBool()": "20964"
        }
    }
}