{
    "contractName": "Maze",
    "abi": [
        {
            "inputs": [
                {
                    "internalType": "int256",
                    "name": "_werock",
                    "type": "int256"
                }
            ],
            "name": "learning",
            "outputs": [],
            "stateMutability": "nonpayable",
            "type": "function"
        },
        {
            "inputs": [],
            "name": "myString",
            "outputs": [
                {
                    "internalType": "string",
                    "name": "",
                    "type": "string"
                }
            ],
            "stateMutability": "view",
            "type": "function"
        },
        {
            "inputs": [],
            "name": "newtee",
            "outputs": [
                {
                    "internalType": "string",
                    "name": "",
                    "type": "string"
                }
            ],
            "stateMutability": "view",
            "type": "function"
        }
    ],
    "bytecode": "60c0604052600960808190526833342053617661676560b81b60a090815261002a9160009190610042565b50602e60015534801561003c57600080fd5b50610116565b82805461004e906100db565b90600052602060002090601f01602090048101928261007057600085556100b6565b82601f1061008957805160ff19168380011785556100b6565b828001600101855582156100b6579182015b828111156100b657825182559160200191906001019061009b565b506100c29291506100c6565b5090565b5b808211156100c257600081556001016100c7565b6002810460018216806100ef57607f821691505b6020821081141561011057634e487b7160e01b600052602260045260246000fd5b50919050565b610209806101256000396000f3fe608060405234801561001057600080fd5b50600436106100415760003560e01c8063492bfa181461004657806373be7acd14610064578063ef8b6bf51461008c575b600080fd5b61004e61009f565b60405161005b9190610145565b60405180910390f35b61004e6040518060400160405280600981526020016836322073617661676560b81b81525081565b61009d61009a36600461012d565b50565b005b600080546100ac90610198565b80601f01602080910402602001604051908101604052809291908181526020018280546100d890610198565b80156101255780601f106100fa57610100808354040283529160200191610125565b820191906000526020600020905b81548152906001019060200180831161010857829003601f168201915b505050505081565b60006020828403121561013e578081fd5b5035919050565b6000602080835283518082850152825b8181101561017157858101830151858201604001528201610155565b818111156101825783604083870101525b50601f01601f1916929092016040019392505050565b6002810460018216806101ac57607f821691505b602082108114156101cd57634e487b7160e01b600052602260045260246000fd5b5091905056fea2646970667358221220eeea3f1e3c4b4b3bc40b734cbd525fc7634e5e9a24d987311da102ebf16e97d764736f6c63430008020033",
    "sourcePath": "c:/Users/swapt/Desktop/Programming/Learn.sol",
    "compiler": {
        "name": "solc",
        "version": "0.8.2+commit.661d1103"
    },
    "functionHashes": {
        "learning(int256)": "ef8b6bf5",
        "myString()": "492bfa18",
        "newtee()": "73be7acd"
    },
    "gasEstimates": {
        "creation": {
            "codeDepositCost": "104200",
            "executionCost": "infinite",
            "totalCost": "infinite"
        },
        "external": {
            "learning(int256)": "233",
            "myString()": "infinite",
            "newtee()": "infinite"
        }
    }
}