{
    "contractName": "myContract",
    "abi": [
        {
            "inputs": [],
            "stateMutability": "nonpayable",
            "type": "constructor"
        },
        {
            "inputs": [
                {
                    "internalType": "string",
                    "name": "_firstName",
                    "type": "string"
                },
                {
                    "internalType": "string",
                    "name": "_lastName",
                    "type": "string"
                }
            ],
            "name": "addPerson",
            "outputs": [],
            "stateMutability": "nonpayable",
            "type": "function"
        },
        {
            "inputs": [
                {
                    "internalType": "uint8",
                    "name": "",
                    "type": "uint8"
                }
            ],
            "name": "people",
            "outputs": [
                {
                    "internalType": "uint8",
                    "name": "id",
                    "type": "uint8"
                },
                {
                    "internalType": "string",
                    "name": "firstName",
                    "type": "string"
                },
                {
                    "internalType": "string",
                    "name": "lastName",
                    "type": "string"
                }
            ],
            "stateMutability": "view",
            "type": "function"
        }
    ],
    "bytecode": "60806040526000805460ff1916905534801561001a57600080fd5b50600280546001600160a01b031916331790556105558061003c6000396000f3fe608060405234801561001057600080fd5b50600436106100365760003560e01c806322f5b58d1461003b578063a96ad8be14610050575b600080fd5b61004e610049366004610391565b61007b565b005b61006361005e3660046103f2565b610139565b60405161007293929190610465565b60405180910390f35b6002546001600160a01b0316331461009257600080fd5b600080546001919081906100aa90849060ff1661049d565b82546101009290920a60ff8181021990931691831602179091556040805160608101825260008054841680835260208084018981528486018990529183526001808252949092208351815460ff1916961695909517855551805192955061011693850192910190610271565b5060408201518051610132916002840191602090910190610271565b5050505050565b60016020819052600091825260409091208054918101805460ff90931692610160906104ce565b80601f016020809104026020016040519081016040528092919081815260200182805461018c906104ce565b80156101d95780601f106101ae576101008083540402835291602001916101d9565b820191906000526020600020905b8154815290600101906020018083116101bc57829003601f168201915b5050505050908060020180546101ee906104ce565b80601f016020809104026020016040519081016040528092919081815260200182805461021a906104ce565b80156102675780601f1061023c57610100808354040283529160200191610267565b820191906000526020600020905b81548152906001019060200180831161024a57829003601f168201915b5050505050905083565b82805461027d906104ce565b90600052602060002090601f01602090048101928261029f57600085556102e5565b82601f106102b857805160ff19168380011785556102e5565b828001600101855582156102e5579182015b828111156102e55782518255916020019190600101906102ca565b506102f19291506102f5565b5090565b5b808211156102f157600081556001016102f6565b600082601f83011261031a578081fd5b813567ffffffffffffffff8082111561033557610335610509565b604051601f8301601f19908116603f0116810190828211818310171561035d5761035d610509565b81604052838152866020858801011115610375578485fd5b8360208701602083013792830160200193909352509392505050565b600080604083850312156103a3578182fd5b823567ffffffffffffffff808211156103ba578384fd5b6103c68683870161030a565b935060208501359150808211156103db578283fd5b506103e88582860161030a565b9150509250929050565b600060208284031215610403578081fd5b813560ff81168114610413578182fd5b9392505050565b60008151808452815b8181101561043f57602081850181015186830182015201610423565b818111156104505782602083870101525b50601f01601f19169290920160200192915050565b60ff84168152606060208201526000610481606083018561041a565b8281036040840152610493818561041a565b9695505050505050565b600060ff821660ff84168060ff038211156104c657634e487b7160e01b83526011600452602483fd5b019392505050565b600181811c908216806104e257607f821691505b6020821081141561050357634e487b7160e01b600052602260045260246000fd5b50919050565b634e487b7160e01b600052604160045260246000fdfea2646970667358221220e35d5bbfa3c9f06647eac698a3949722e0dca79d7538a13097eb8d1f24322b8e64736f6c63430008040033",
    "sourcePath": "c:/Users/swapt/Desktop/Solidity_learn/Learning/mappingAdvance.sol",
    "compiler": {
        "name": "solc",
        "version": "0.8.4+commit.c7e474f2"
    },
    "functionHashes": {
        "addPerson(string,string)": "22f5b58d",
        "people(uint8)": "a96ad8be"
    },
    "gasEstimates": {
        "creation": {
            "codeDepositCost": "273000",
            "executionCost": "41965",
            "totalCost": "314965"
        },
        "external": {
            "addPerson(string,string)": "infinite",
            "people(uint8)": "infinite"
        }
    }
}