{
    "contractName": "operators",
    "abi": [
        {
            "inputs": [],
            "name": "additionTwoNumbers",
            "outputs": [
                {
                    "internalType": "int16",
                    "name": "",
                    "type": "int16"
                }
            ],
            "stateMutability": "view",
            "type": "function"
        },
        {
            "inputs": [],
            "name": "decrement",
            "outputs": [
                {
                    "internalType": "int8",
                    "name": "",
                    "type": "int8"
                },
                {
                    "internalType": "int8",
                    "name": "",
                    "type": "int8"
                }
            ],
            "stateMutability": "nonpayable",
            "type": "function"
        },
        {
            "inputs": [],
            "name": "divisionTwoNumbers",
            "outputs": [
                {
                    "internalType": "int8",
                    "name": "",
                    "type": "int8"
                }
            ],
            "stateMutability": "view",
            "type": "function"
        },
        {
            "inputs": [
                {
                    "internalType": "int8",
                    "name": "_firstNumber",
                    "type": "int8"
                },
                {
                    "internalType": "int8",
                    "name": "_secondNumber",
                    "type": "int8"
                }
            ],
            "name": "getNumbers",
            "outputs": [],
            "stateMutability": "nonpayable",
            "type": "function"
        },
        {
            "inputs": [],
            "name": "increment",
            "outputs": [
                {
                    "internalType": "int8",
                    "name": "",
                    "type": "int8"
                },
                {
                    "internalType": "int8",
                    "name": "",
                    "type": "int8"
                }
            ],
            "stateMutability": "nonpayable",
            "type": "function"
        },
        {
            "inputs": [],
            "name": "multiplicationTwoNumbers",
            "outputs": [
                {
                    "internalType": "int16",
                    "name": "",
                    "type": "int16"
                }
            ],
            "stateMutability": "view",
            "type": "function"
        },
        {
            "inputs": [],
            "name": "subtractionTwoNumbers",
            "outputs": [
                {
                    "internalType": "int8",
                    "name": "",
                    "type": "int8"
                }
            ],
            "stateMutability": "view",
            "type": "function"
        }
    ],
    "bytecode": "608060405234801561001057600080fd5b5061046c806100206000396000f3fe608060405234801561001057600080fd5b506004361061007d5760003560e01c806365ace2f21161005b57806365ace2f2146100df57806395393a94146100e7578063d09de08a146100ef578063fc227560146100f757600080fd5b806315582df1146100825780632baeceb7146100a25780633ae41a63146100c4575b600080fd5b61008a61012b565b60405160019190910b81526020015b60405180910390f35b6100aa61014d565b60408051600093840b81529190920b602082015201610099565b6100cc6101b3565b60405160009190910b8152602001610099565b6100cc6101d2565b61008a6101ee565b6100aa610207565b610129610105366004610261565b6000805491810b60ff9081166101000261ffff1990931693820b1692909217179055565b005b600080548190610144906101008104830b90830b610294565b60000b92915050565b600080548190810b8180610160836103df565b8254600091820b60ff90811661010094850a90810291021990911617909255815404810b906001610190836103df565b91906101000a81548160ff021916908360000b60ff160217905550915091509091565b6000805481906101cc906101008104830b90830b61039e565b92915050565b600080546101e9906101008104830b90830b6102d7565b905090565b600080548190610144906101008104830b90830b61031d565b600080548190810b818061021a83610400565b8254600091820b60ff90811661010094850a90810291021990911617909255815404810b90600161019083610400565b8035600081900b811461025c57600080fd5b919050565b6000806040838503121561027457600080fd5b61027d8361024a565b915061028b6020840161024a565b90509250929050565b60008160000b8360000b6000821282607f038213811516156102b8576102b8610420565b82607f190382128116156102ce576102ce610420565b50019392505050565b60008160000b8360000b806102fc57634e487b7160e01b600052601260045260246000fd5b607f1982146000198214161561031457610314610420565b90059392505050565b60008082810b84820b82811383831382607f048411828216161561034357610343610420565b607f198584128281168683058612161561035f5761035f610420565b958512958387168583058712161561037957610379610420565b84607f058612818816161561039057610390610420565b505050910295945050505050565b600081810b83820b8281128015607f198301841216156103c0576103c0610420565b81607f0183138116156103d5576103d5610420565b5090039392505050565b600081810b607f198114156103f6576103f6610420565b6000190192915050565b60008160000b607f81141561041757610417610420565b60010192915050565b634e487b7160e01b600052601160045260246000fdfea26469706673582212204656c8c336728a2c5eee17dd824f03ab96448ae60364bae1cf9bf9dcdfb986be64736f6c63430008050033",
    "sourcePath": "c:/Users/swapt/Desktop/Solidity_learn/Learning/operators.sol",
    "compiler": {
        "name": "solc",
        "version": "0.8.5+commit.a4f2e591"
    },
    "functionHashes": {
        "additionTwoNumbers()": "15582df1",
        "decrement()": "2baeceb7",
        "divisionTwoNumbers()": "65ace2f2",
        "getNumbers(int8,int8)": "fc227560",
        "increment()": "d09de08a",
        "multiplicationTwoNumbers()": "95393a94",
        "subtractionTwoNumbers()": "3ae41a63"
    },
    "gasEstimates": {
        "creation": {
            "codeDepositCost": "226400",
            "executionCost": "269",
            "totalCost": "226669"
        },
        "external": {
            "additionTwoNumbers()": "2525",
            "decrement()": "infinite",
            "divisionTwoNumbers()": "2492",
            "getNumbers(int8,int8)": "infinite",
            "increment()": "infinite",
            "multiplicationTwoNumbers()": "2700",
            "subtractionTwoNumbers()": "2575"
        }
    }
}