{
    "contractName": "operatorsRock",
    "abi": [
        {
            "inputs": [],
            "name": "additionTwoNumbers",
            "outputs": [
                {
                    "internalType": "int16",
                    "name": "",
                    "type": "int16"
                }
            ],
            "stateMutability": "view",
            "type": "function"
        },
        {
            "inputs": [
                {
                    "internalType": "int8",
                    "name": "_firstNumber",
                    "type": "int8"
                },
                {
                    "internalType": "int8",
                    "name": "_secondNumber",
                    "type": "int8"
                }
            ],
            "name": "getNumbers",
            "outputs": [],
            "stateMutability": "nonpayable",
            "type": "function"
        },
        {
            "inputs": [],
            "name": "subtractionTwoNumbers",
            "outputs": [
                {
                    "internalType": "int16",
                    "name": "",
                    "type": "int16"
                }
            ],
            "stateMutability": "view",
            "type": "function"
        }
    ],
    "bytecode": "608060405234801561001057600080fd5b506101f6806100206000396000f3fe608060405234801561001057600080fd5b50600436106100415760003560e01c806315582df1146100465780633ae41a6314610065578063fc2275601461006d575b600080fd5b61004e6100a1565b60405160019190910b815260200160405180910390f35b61004e6100c3565b61009f61007b3660046100f3565b6000805491810b60ff9081166101000261ffff1990931693820b1692909217179055565b005b6000805481906100ba906101008104830b90830b610126565b60000b92915050565b6000805481906100ba906101008104830b90830b610169565b8035600081900b81146100ee57600080fd5b919050565b6000806040838503121561010657600080fd5b61010f836100dc565b915061011d602084016100dc565b90509250929050565b60008160000b8360000b6000821282607f0382138115161561014a5761014a6101aa565b82607f19038212811615610160576101606101aa565b50019392505050565b600081810b83820b8281128015607f1983018412161561018b5761018b6101aa565b81607f0183138116156101a0576101a06101aa565b5090039392505050565b634e487b7160e01b600052601160045260246000fdfea2646970667358221220caeb7e96c993800ec2286eadec53171fe191823bcdd0ea19e846cf7b4bd2115564736f6c63430008050033",
    "sourcePath": "c:/Users/swapt/Desktop/Solidity_learn/Learning/operators.sol",
    "compiler": {
        "name": "solc",
        "version": "0.8.5+commit.a4f2e591"
    },
    "functionHashes": {
        "additionTwoNumbers()": "15582df1",
        "getNumbers(int8,int8)": "fc227560",
        "subtractionTwoNumbers()": "3ae41a63"
    },
    "gasEstimates": {
        "creation": {
            "codeDepositCost": "100400",
            "executionCost": "147",
            "totalCost": "100547"
        },
        "external": {
            "additionTwoNumbers()": "2501",
            "getNumbers(int8,int8)": "infinite",
            "subtractionTwoNumbers()": "2526"
        }
    }
}