{
    "contractName": "SendMoneyExample",
    "abi": [
        {
            "inputs": [],
            "name": "balanceReceived",
            "outputs": [
                {
                    "internalType": "uint256",
                    "name": "",
                    "type": "uint256"
                }
            ],
            "stateMutability": "view",
            "type": "function"
        },
        {
            "inputs": [],
            "name": "getBalance",
            "outputs": [
                {
                    "internalType": "uint256",
                    "name": "",
                    "type": "uint256"
                }
            ],
            "stateMutability": "view",
            "type": "function"
        },
        {
            "inputs": [],
            "name": "receiveMoney",
            "outputs": [],
            "stateMutability": "payable",
            "type": "function"
        },
        {
            "inputs": [],
            "name": "transfer",
            "outputs": [],
            "stateMutability": "payable",
            "type": "function"
        }
    ],
    "bytecode": "608060405234801561001057600080fd5b5061011e806100206000396000f3fe608060405260043610603a5760003560e01c806312065fe014603f57806352a90c4214605f5780636d26ec181460735780638a4068dd14607b575b600080fd5b348015604a57600080fd5b50475b60405190815260200160405180910390f35b348015606a57600080fd5b50604d60005481565b60796081565b005b60796097565b346000808282546090919060c5565b9091555050565b60405133903480156108fc02916000818181858888f1935050505015801560c2573d6000803e3d6000fd5b50565b6000821982111560e357634e487b7160e01b81526011600452602481fd5b50019056fea2646970667358221220204b99b498b95a1f9f53bc2eb756bb61113de0cb52ddc5939d979f437b44a73d64736f6c63430008040033",
    "sourcePath": "c:/Users/swapt/Desktop/Solidity_learn/Learning/Address.sol",
    "compiler": {
        "name": "solc",
        "version": "0.8.4+commit.c7e474f2"
    },
    "functionHashes": {
        "balanceReceived()": "52a90c42",
        "getBalance()": "12065fe0",
        "receiveMoney()": "6d26ec18",
        "transfer()": "8a4068dd"
    },
    "gasEstimates": {
        "creation": {
            "codeDepositCost": "57200",
            "executionCost": "105",
            "totalCost": "57305"
        },
        "external": {
            "balanceReceived()": "983",
            "getBalance()": "149",
            "receiveMoney()": "21036",
            "transfer()": "infinite"
        }
    }
}