{
    "contractName": "simpleCalculator",
    "abi": [
        {
            "inputs": [
                {
                    "internalType": "int8",
                    "name": "num",
                    "type": "int8"
                }
            ],
            "name": "addition",
            "outputs": [],
            "stateMutability": "nonpayable",
            "type": "function"
        },
        {
            "inputs": [
                {
                    "internalType": "int8",
                    "name": "num",
                    "type": "int8"
                }
            ],
            "name": "divison",
            "outputs": [],
            "stateMutability": "nonpayable",
            "type": "function"
        },
        {
            "inputs": [
                {
                    "internalType": "int8",
                    "name": "num",
                    "type": "int8"
                }
            ],
            "name": "multiplication",
            "outputs": [],
            "stateMutability": "nonpayable",
            "type": "function"
        },
        {
            "inputs": [
                {
                    "internalType": "int8",
                    "name": "num",
                    "type": "int8"
                }
            ],
            "name": "subtraction",
            "outputs": [],
            "stateMutability": "nonpayable",
            "type": "function"
        }
    ],
    "bytecode": "60806040526000805462ffffff1916905534801561001c57600080fd5b506103198061002c6000396000f3fe608060405234801561001057600080fd5b506004361061004c5760003560e01c806302e3d98a146100515780634a35050914610066578063d1abf0c914610079578063efca8fb11461008c575b600080fd5b61006461005f36600461013f565b61009f565b005b61006461007436600461013f565b6100da565b61006461008736600461013f565b6100f3565b61006461009a36600461013f565b61010c565b6000805482820b919081906100b890849060020b610285565b92506101000a81548162ffffff021916908360020b62ffffff16021790555050565b6000805482820b919081906100b890849060020b6101f8565b6000805482820b919081906100b890849060020b610169565b600080549082900b600291820b90910b1361012657600080fd5b6000805482820b919081906100b890849060020b6101b0565b60006020828403121561015157600080fd5b81358060000b811461016257600080fd5b9392505050565b60008160020b8360020b6000821282627fffff0382138115161561018f5761018f6102cd565b82627fffff190382128116156101a7576101a76102cd565b50019392505050565b60008160020b8360020b806101d557634e487b7160e01b600052601260045260246000fd5b627fffff198214600019821416156101ef576101ef6102cd565b90059392505050565b60008160020b8360020b627fffff600082136000841383830485118282161615610224576102246102cd565b627fffff196000851282811687830587121615610243576102436102cd565b6000871292508582058712848416161561025f5761025f6102cd565b85850587128184161615610275576102756102cd565b5050509290910295945050505050565b60008160020b8360020b6000811281627fffff19018312811516156102ac576102ac6102cd565b81627fffff0183138116156102c3576102c36102cd565b5090039392505050565b634e487b7160e01b600052601160045260246000fdfea26469706673582212200bfbb284162baa8f2b1dafe04cee429fa5504e16a3882550a15b18f498fcd8e264736f6c63430008050033",
    "sourcePath": "c:/Users/swapt/Desktop/Solidity_learn/Learning/simpleCalculator.sol",
    "compiler": {
        "name": "solc",
        "version": "0.8.5+commit.a4f2e591"
    },
    "functionHashes": {
        "addition(int8)": "d1abf0c9",
        "divison(int8)": "efca8fb1",
        "multiplication(int8)": "4a350509",
        "subtraction(int8)": "02e3d98a"
    },
    "gasEstimates": {
        "creation": {
            "codeDepositCost": "158600",
            "executionCost": "24420",
            "totalCost": "183020"
        },
        "external": {
            "addition(int8)": "26855",
            "divison(int8)": "29012",
            "multiplication(int8)": "26995",
            "subtraction(int8)": "26814"
        }
    }
}